:020000040800F2
:10000000B006002089010008910100089301000852
:100010009501000897010008990100080000000000
:100020000000000000000000000000009B0100082C
:100030009D010008000000009F010008A1010008C8
:10004000A3010008A3010008A3010008A301000800
:10005000A3010008A3010008A3010008A3010008F0
:10006000A3010008A3010008A3010008A3010008E0
:10007000A3010008A3010008A3010008A3010008D0
:10008000A3010008A3010008A3010008A3010008C0
:10009000A3010008A3010008A3010008A3010008B0
:1000A000A3010008A3010008A3010008A3010008A0
:1000B000A3010008A3010008A3010008A301000890
:1000C000A3010008A3010008A3010008A301000880
:1000D000A3010008F1060008A3010008A30100081D
:1000E000A3010008A3010008A301000800F002F822
:1000F00000F03AF80AA090E8000C82448344AAF188
:100100000107DA4501D100F02FF8AFF2090EBAE885
:100110000F0013F0010F18BFFB1A43F0010318473B
:100120006809000088090000103A24BF78C878C127
:10013000FAD8520724BF30C830C144BF04680C60ED
:10014000704700000023002400250026103A28BF35
:1001500078C1FBD8520728BF30C148BF0B60704739
:100160001FB51FBD10B510BD00F09AF81146FFF77E
:10017000F7FF00F07DFC00F0CCF803B4FFF7F2FFCE
:1001800003BC00F060FC00000948804709480047B4
:10019000FEE7FEE7FEE7FEE7FEE7FEE7FEE7FEE737
:1001A000FEE7FEE704480549054A064B7047000094
:1001B00091060008ED000008B0000020B006002005
:1001C000B0020020B0020020704700000FB40449C4
:1001D00010B503AA029800F035F810BC5DF814FBC6
:1001E0003400002040EA010310B59B070FD1042A18
:1001F0000DD310C808C9121F9C42F8D020BA19BAF2
:10020000884201D9012010BD4FF0FF3010BD1AB156
:10021000D30703D0521C07E0002010BD10F8013BAB
:1002200011F8014B1B1B07D110F8013B11F8014BD2
:100230001B1B01D1921EF1D1184610BD70477047AB
:1002400070477047074B70B50D467B4400F011F8BE
:100250000446284600F020F810B14FF0FF3070BD82
:10026000204670BDFF07000001694A1C0261087842
:10027000704700B58FB0CDE90131002105910549E6
:100280007944CDE903101146684600F02EF80FB00E
:1002900000BD0000E5FFFFFF007B00F0800070471D
:1002A000754600F03FF8AE4605006946534620F01B
:1002B0000700854618B020B5FFF774FFBDE8204061
:1002C0004FF000064FF000074FF000084FF0000B12
:1002D00021F00701AC46ACE8C009ACE8C009ACE8C5
:1002E000C009ACE8C0098D4670472DE9F0410646CB
:1002F0000024D6E90170F5688046304603E04146A7
:10030000B847641C3046A8470028F8D12046BDE80D
:10031000F08110B50446AFF300802046BDE81040E0
:10032000FFF72BBF004870474C0000202DE9F0413B
:10033000024600250026002000230024002791F813
:1003400003C00CF00F0591F803C00CF0100CBCF1C9
:10035000000F03D091F802C04CEA050591F800C0E7
:10036000BCF1000F31D0146800202BE04FF0010CDD
:100370000CFA00F3B1F800C00CEA03069E4220D14B
:1003800083004FF00F0C0CFA03F7BC4305FA03FC93
:100390004CEA040491F803C0BCF1280F06D14FF0D9
:1003A000010C0CFA00FCC2F814C00AE091F803C07A
:1003B000BCF1480F05D14FF0010C0CFA00FCC2F85B
:1003C00010C0401C0828D1D31460B1F800C0BCF1A3
:1003D000FF0F34DD546800202EE000F1080C4FF0D0
:1003E000010808FA0CF3B1F800C00CEA03069E42BB
:1003F00021D183004FF00F0C0CFA03F7BC4305FA30
:1004000003FC4CEA040491F803C0BCF1280F05D1A9
:1004100000F1080C08FA0CF8C2F8148091F803C037
:10042000BCF1480F07D100F1080C4FF0010808FAA1
:100430000CF8C2F81080401C0828CED35460BDE8E8
:10044000F081000070B5002100230F22C47804B3AE
:10045000154C246804F4E064C4F5E064210AC1F199
:100460000403CA40447804FA03F184781440214319
:1004700009010E4C0678A155047804F01F050124EB
:10048000AC4005786D11AD0005F1E025C5F80041DF
:1004900009E0047804F01F050124AC40044D0678FF
:1004A000761145F8264070BD0CED00E000E400E058
:1004B00080E100E029B1064A92690243044B9A6147
:1004C00004E0034A92698243014B9A61704700003D
:1004D0000010024030B500210022002400232D4DE1
:1004E0006D6805F00C0121B1042905D0082923D13C
:1004F00005E0294D056022E0274D05601FE0254DF0
:100500006D6805F47012234D6D6805F48034022582
:1005100005EB92421CB9214D554305600BE01D4D82
:100520006D6805F400351DB11C4D5543056002E0B2
:10053000194D5543056002E0174D056000BF00BF2F
:10054000144D6D6805F0F0010909154D6B5C0568E7
:10055000DD4045600F4D6D6805F4E061090A104DFE
:100560006B5C4568DD4085600A4D6D6805F460513F
:10057000C90A0B4D6B5C4568DD40C560054D6D6873
:1005800005F44041890B074D6B5CC568B5FBF3F57D
:10059000056130BD0010024000127A0000093D00E4
:1005A000380000204800002010B500F001F810BD10
:1005B0000CB50020019000903348006840F4803072
:1005C0003149086000BF3048006800F400300090F6
:1005D0000198401C0190009818B90198B0F5A06FDF
:1005E000F1D12948006800F4003010B101200090DA
:1005F00001E0002000900098012843D123480068C2
:1006000040F01000214908600846006820F003000F
:1006100008600846006840F0020008601A48406818
:10062000194948600846406848600846406840F4F8
:10063000806048600846406820F47C1048600846A6
:10064000406840F4E81048600846006840F0807058
:10065000086000BF0C48006800F000700028F9D066
:100660000948406820F00300074948600846406890
:1006700040F00200486000BF0348406800F00C00F2
:100680000828F9D10CBD00000010024000200240F3
:1006900010B51348006840F0010011490860084691
:1006A0004068104908400E494860084600680E49F5
:1006B00008400B4908600846006820F48020086064
:1006C0000846406820F4FE0048604FF41F00886030
:1006D000FFF76AFF4FF000600449086010BD00009A
:1006E000001002400000FFF8FFFFF6FE08ED00E0FA
:1006F00010B540F225511E4800F0BDF888B11C48E5
:1007000000F074F9C1B21B4802680068401C194B24
:1007100018601948815440F22551154800F038F806
:1007200024E040F22441124800F0A5F801281DD130
:100730000F4800880E48001D008800200D49086001
:1007400008220E490C48FFF74DFD40B90C490848F6
:1007500000F064F9084800210160416006E00949A1
:10076000034800F05BF908A0FFF730FD10BD000062
:10077000003801403000002025000020000000204B
:1007800009000020180000200D4C4F4C0A0D0000FD
:1007900001F40072B2F5007F00D100BFCA430280AD
:1007A000704721B1828942F40052828104E082893B
:1007B0004DF6FF731A4082817047000010B586B075
:1007C00004464FF40070ADF8140003208DF81600B5
:1007D00018208DF8170005A91E48FFF7A7FD4FF454
:1007E0008060ADF8140004208DF8170005A91948A1
:1007F000FFF79CFD25208DF8100001208DF81100D9
:100800008DF812008DF8130004A8FFF71BFE00946A
:100810000020ADF80400ADF80600ADF80800ADF812
:100820000C000C20ADF80A0069460B4800F072F885
:10083000012240F22551084800F047F8012240F219
:100840002441054800F041F801210348FFF7A9FFC2
:1008500006B010BD000801400038014002460020EB
:10086000B1F5007F00D100BF13880B400BB1012010
:1008700000E00020704770B50246002400230025E8
:10088000002040F66A16B14200D100BFC1F3421504
:1008900001F01F03012606FA03F3012D02D1968908
:1008A000334006E0022D02D1168A334001E0968AD9
:1008B00033400C12012606FA04F41688344013B1B2
:1008C0000CB1012000E0002070BDF0B5034600240B
:1008D00000260025002040F66A17B94200D100BF6B
:1008E0001846C1F3421401F01F06012707FA06F566
:1008F000012C01D10C3004E0022C01D1103000E0B9
:1009000014301AB107682F43076002E00768AF434D
:100910000760F0BD2DE9F04786B005460E4600247D
:10092000A24600BFA1460027B08900B100BF2F46F4
:100930002C8A4CF6FF700440F08804432C82AC896A
:100940004EF6F3100440B08831890843718908439A
:100950000443AC81AC8A4FF6FF400440B0890443A5
:10096000AC8201A8FFF7B6FD1F48874202D1DDF82F
:1009700010A001E0DDF80CA0A88900F4004040B10F
:100980000AEBCA0000EB0A1031684900B0FBF1F82D
:1009900007E00AEBCA0000EB0A1031688900B0FBDF
:1009A000F1F86420B8FBF0F004012009642101FB98
:1009B0001089A88900F4004040B1322000EBC90042
:1009C000B0FBF1F000F00700044308E0322000EB38
:1009D00009106421B0FBF1F000F00F0004432C81FA
:1009E00006B0BDE8F0870000003801400146888865
:1009F000C0F308007047C1F308028280704770B5E9
:100A000004460D4629462046FFF7F5FF00BF80212A
:100A10002046FFF723FF0028F9D070BD70B50646C9
:100A20000C46002500BF615D3046FFF7E8FF6D1CF6
:100A3000605D0028F7D100BF40213046FFF70EFF70
:100A40000028F9D070BD00BF7047000070B50446A3
:100A50000D4600BF40210548FFF700FF0028F9D0F0
:100A6000E1B20248FFF7C7FF204670BD00380140E1
:100A7000012144F20400FFF71DFD4FF41650FFF76B
:100A80009DFE00BFFEE70000A80A0008000000204D
:100A90004C00000028010008F40A00084C00002067
:100AA00064060000440100087A68616E6763686349
:100AB0000049742773206D79206E616D65210A00ED
:100AC00049742773204572726F72210A000000007A
:100AD0000000000000000000000000000000000016
:100AE00000000000010203040102030406070809D4
:040AF00002040608EE
:04000005080000ED02
:00000001FF
